:1001B3001200038F1BE51B700302023DF51AD39453
:1001C3000A501AAE18AF197C007D0A12035EE51BB4
:1001D30075F00A84EF25F0F519EC3EF518E51B647C
:1001E3000B703FE519B4041DE518B40418C2A7E465
:1001F300FD7F021202D31203707D0F7F011202D31F
:1002030012037080EAC2A6E4F518F5197D0E7F0289
:100213001202D31203707D0E7F011202D3120370F8
:1002230080EAE51BB40C05E4F518F519E51BB40DDC
:1002330009D2A7D2A6E4F518F519AD1A7F01120267
:04024300D30201B32E
:10033600EF1FAC0670011E4C600A7D027CEFDCFEEE
:04034600DDFC80EC6E
:01034A002290
:10034B0010083F065B4F666D7D077F6F777C395ECC
:02035B007971B6
:1002D300EF14B4080050549002E875F003A4C583EA
:1002E30025F0C5837302030002030402030C020317
:1002F3001002031802031C020324020328C2A28073
:1003030002D2A2C2A3C2A48022C2A28002D2A2D2DB
:10031300A3C2A48016C2A28002D2A2C2A3D2A48086
:100323000AC2A28002D2A2D2A3D2A474082DF8E6F4
:03033300F5802230
:0B0370007F017E00120336E4F58022BE
:10000300E4F51C7590FFC2932097167F14FE12032C
:10001300363097FD7F147E00120336751C017F0175
:10002300222096177F147E001203363096FD7F142C
:100033007E00120336751C057F05222095177F1459
:100043007E001203363095FD7F147E001203367551
:100053001C097F09222094177F147E001203363077
:1000630094FD7F147E00120336751C0D7F0D22C292
:10007300922097177F147E001203363097FD7F146A
:100083007E00120336751C027F02222096177F140E
:100093007E001203363096FD7F147E001203367500
:1000A3001C067F06222095177F147E00120336302C
:1000B30095FD7F147E00120336751C0A7F0A2220E9
:1000C30094177F147E001203363094FD7F147E0054
:1000D300120336751C0E7F0E22C2912097177F14D0
:1000E3007E001203363097FD7F147E0012033675AF
:1000F3001C037F03222096177F147E0012033630E1
:1001030096FD7F147E00120336751C077F0722209D
:1001130095177F147E001203363095FD7F147E0001
:10012300120336751C0B7F0B222094177F147E005D
:100133001203363094FD7F147E00120336751C0FB4
:100143007F0F22C2902097177F147E001203363050
:1001530097FD7F147E00120336751C047F04222052
:1001630096177F147E001203363096FD7F147E00AF
:10017300120336751C087F08222095177F147E0012
:100183001203363095FD7F147E00120336751C0C66
:100193007F0C222094177F147E001203363094FDC7
:0F01A3007F147E00120336751C107F1022AF1CD4
:0101B200222A
:03000000020247B2
:0C024700787FE4F6D8FD75811C02028E61
:10035E00EF8DF0A4A8F0CF8CF0A428CE8DF0A42EB3
:02036E00FE226D
:100253000201B3E493A3F8E493A34003F68001F20D
:1002630008DFF48029E493A3F85407240CC8C333AC
:10027300C4540F4420C8834004F456800146F6DF7B
:10028300E4800B010204081020408090034BE47EBD
:10029300019360BCA3FF543F30E509541FFEE49370
:1002A300A360010ECF54C025E060A840B8E493A337
:1002B300FAE493A3F8E493A3C8C582C8CAC583CA62
:1002C300F0A3C8C582C8CAC583CADFE9DEE780BE1A
:01035D00009F
:00000001FF
