:03000000020016E5
:0C001600787FE4F6D8FD75810A02005DD9
:06012600010901010809B6
:1000F1005389F0438901C28DD28C758AAF758C3CCE
:05010100D2AFD2A922DB
:09011400D2AFD2A8D288C2892220
:09011D00D2AFD2AAD28AC28B2211
:0E01060075A0FE1200F112011412011D80FE00
:03000B000200A24E
:1000A200C0E0C0D0E50860041508803EE509B4014F
:0B00B20016E5A0B47F0575A0FE800CD1
:0C00BD00E5A0F4F50A25E0F50AF4F5A032
:0E00C900E5097016E5A0B4FE0575A07F800C59
:0C00D700E5A0F4F50AC313F50AF4F5A047
:0E00E300758AAF758C3C750809D0D0D0E0321C
:03000300020006F2
:040006007509003246
:0300130002000EDA
:04000E00750901323D
:10002200020106E493A3F8E493A34003F68001F2ED
:1000320008DFF48029E493A3F85407240CC8C333DF
:10004200C4540F4420C8834004F456800146F6DFAE
:10005200E4800B0102040810204080900126E47E17
:10006200019360BCA3FF543F30E509541FFEE493A3
:10007200A360010ECF54C025E060A840B8E493A36A
:10008200FAE493A3F8E493A3C8C582C8CAC583CA95
:10009200F0A3C8C582C8CAC583CADFE9DEE780BE4D
:01012C0000D2
:00000001FF
