:030000000200C536
:0C00C500787FE4F6D8FD75811102010C73
:100003007D017F081201517FF47E011201B47D024C
:100013007F071201517FF47E011201B47D037F0635
:100023001201517FF47E011201B47D047F05120198
:10003300517FF47E011201B47D057F041201517FCB
:10004300F47E011201B47D067F031201517FF47E19
:10005300011201B47D077F021201517FF47E011268
:1000630001B47D087F011201517FF47E011201B4B6
:100073007D017F081201511201D67D027F07120113
:10008300511201D67D037F061201511201D67D0460
:100093007F051201511201D67D057F041201511211
:1000A30001D67D067F031201511201D67D077F021F
:1000B3001201511201D67D087F011201511201D69E
:0200C30080AE0D
:1001B400EF1FAC0670011E4C600A7D027CEFDCFE72
:0401C400DDFC80ECF2
:0101C8002214
:0C01C9000A083F065B4F666D7D077F6FE4
:10015100EF14B40800505490016675F003A4C583F0
:1001610025F0C5837302017E02018202018A020128
:100171008E02019602019A0201A20201A6C2A28088
:1001810002D2A2C2A3C2A48022C2A28002D2A2D25F
:10019100A3C2A48016C2A28002D2A2C2A3D2A4800A
:1001A1000AC2A28002D2A2D2A3D2A474082DF8E678
:0301B100F58022B4
:0B01D6007F017E001201B4E4F58022DE
:1000D100020003E493A3F8E493A34003F68001F242
:1000E10008DFF48029E493A3F85407240CC8C33330
:1000F100C4540F4420C8834004F456800146F6DFFF
:10010100E4800B01020408102040809001C9E47EC4
:10011100019360BCA3FF543F30E509541FFEE493F3
:10012100A360010ECF54C025E060A840B8E493A3BA
:10013100FAE493A3F8E493A3C8C582C8CAC583CAE5
:10014100F0A3C8C582C8CAC583CADFE9DEE780BE9D
:0101D5000029
:00000001FF
