:03000000020003F8
:0C000300787FE4F6D8FD75810802004A01
:03010D000108FFE7
:0400F4007F147E00F7
:1000F800EF1FAC0670011E4C600A7D027CEFDCFE2F
:04010800DDFC80ECAE
:01010C0022D0
:10008F0020B02D1200F430B0FD1200F4E508B4FFDB
:10009F00057508FE8017E5A0647F600E6308FFE515
:1000AF000825E0F5086308FF80037508FF8508A0A1
:1000BF0020B1CD1200F430B1FD1200F4E508B4FF09
:1000CF000575087F8012E50864FE60116308FFE57F
:1000DF0008C313F5086308FF8508A080A37508FF00
:0500EF008508A0809BC4
:10000F0002008FE493A3F8E493A34003F68001F278
:10001F0008DFF48029E493A3F85407240CC8C333F2
:10002F00C4540F4420C8834004F456800146F6DFC1
:10003F00E4800B010204081020408090010DE47E43
:10004F00019360BCA3FF543F30E509541FFEE493B6
:10005F00A360010ECF54C025E060A840B8E493A37D
:10006F00FAE493A3F8E493A3C8C582C8CAC583CAA8
:10007F00F0A3C8C582C8CAC583CADFE9DEE780BE60
:0101100000EE
:00000001FF
